{"abi":[{"type":"constructor","inputs":[{"name":"creForwarder_","type":"address","internalType":"address"},{"name":"owner_","type":"address","internalType":"address"}],"stateMutability":"nonpayable"},{"type":"function","name":"creForwarder","inputs":[],"outputs":[{"name":"","type":"address","internalType":"address"}],"stateMutability":"view"},{"type":"function","name":"owner","inputs":[],"outputs":[{"name":"","type":"address","internalType":"address"}],"stateMutability":"view"},{"type":"function","name":"reclaimCollateral","inputs":[{"name":"seriesId","type":"bytes32","internalType":"bytes32"}],"outputs":[],"stateMutability":"nonpayable"},{"type":"function","name":"redeem","inputs":[{"name":"seriesId","type":"bytes32","internalType":"bytes32"},{"name":"amount","type":"uint256","internalType":"uint256"}],"outputs":[],"stateMutability":"nonpayable"},{"type":"function","name":"registerSeries","inputs":[{"name":"seriesId","type":"bytes32","internalType":"bytes32"},{"name":"expiry","type":"uint256","internalType":"uint256"},{"name":"strikePrice","type":"uint256","internalType":"uint256"},{"name":"collateralPerUnit","type":"uint256","internalType":"uint256"},{"name":"collateralToken","type":"address","internalType":"address"},{"name":"optionToken","type":"address","internalType":"address"},{"name":"lp","type":"address","internalType":"address"},{"name":"totalCollateral","type":"uint256","internalType":"uint256"}],"outputs":[],"stateMutability":"nonpayable"},{"type":"function","name":"renounceOwnership","inputs":[],"outputs":[],"stateMutability":"nonpayable"},{"type":"function","name":"series","inputs":[{"name":"","type":"bytes32","internalType":"bytes32"}],"outputs":[{"name":"expiry","type":"uint256","internalType":"uint256"},{"name":"strikePrice","type":"uint256","internalType":"uint256"},{"name":"collateralPerUnit","type":"uint256","internalType":"uint256"},{"name":"collateralToken","type":"address","internalType":"address"},{"name":"optionToken","type":"address","internalType":"address"},{"name":"lp","type":"address","internalType":"address"},{"name":"totalCollateral","type":"uint256","internalType":"uint256"},{"name":"settled","type":"bool","internalType":"bool"},{"name":"settlementPrice","type":"uint256","internalType":"uint256"}],"stateMutability":"view"},{"type":"function","name":"settleSeries","inputs":[{"name":"seriesId","type":"bytes32","internalType":"bytes32"},{"name":"spotPrice","type":"uint256","internalType":"uint256"}],"outputs":[],"stateMutability":"nonpayable"},{"type":"function","name":"transferOwnership","inputs":[{"name":"newOwner","type":"address","internalType":"address"}],"outputs":[],"stateMutability":"nonpayable"},{"type":"event","name":"CollateralReturned","inputs":[{"name":"seriesId","type":"bytes32","indexed":true,"internalType":"bytes32"},{"name":"lp","type":"address","indexed":false,"internalType":"address"},{"name":"amount","type":"uint256","indexed":false,"internalType":"uint256"}],"anonymous":false},{"type":"event","name":"HolderPaid","inputs":[{"name":"seriesId","type":"bytes32","indexed":true,"internalType":"bytes32"},{"name":"holder","type":"address","indexed":false,"internalType":"address"},{"name":"payout","type":"uint256","indexed":false,"internalType":"uint256"}],"anonymous":false},{"type":"event","name":"OwnershipTransferred","inputs":[{"name":"previousOwner","type":"address","indexed":true,"internalType":"address"},{"name":"newOwner","type":"address","indexed":true,"internalType":"address"}],"anonymous":false},{"type":"event","name":"SeriesRegistered","inputs":[{"name":"seriesId","type":"bytes32","indexed":true,"internalType":"bytes32"}],"anonymous":false},{"type":"event","name":"SeriesSettled","inputs":[{"name":"seriesId","type":"bytes32","indexed":true,"internalType":"bytes32"},{"name":"settlementPrice","type":"uint256","indexed":false,"internalType":"uint256"}],"anonymous":false},{"type":"error","name":"OwnableInvalidOwner","inputs":[{"name":"owner","type":"address","internalType":"address"}]},{"type":"error","name":"OwnableUnauthorizedAccount","inputs":[{"name":"account","type":"address","internalType":"address"}]},{"type":"error","name":"SafeERC20FailedOperation","inputs":[{"name":"token","type":"address","internalType":"address"}]}],"bytecode":{"object":"0x60a0346100dd57601f610b2c38819003918201601f19168301916001600160401b038311848410176100e15780849260409485528339810103126100dd57610046816100f5565b906001600160a01b039061005c906020016100f5565b169081156100ca575f80546001600160a01b031981168417825560405193916001600160a01b03909116907f8be0079c531659141344cd1fd0a4f28419497f9722a3daafe3b4186f6b6457e09080a3608052610a22908161010a82396080518181816103a5015261064b0152f35b631e4fbdf760e01b5f525f60045260245ffd5b5f80fd5b634e487b7160e01b5f52604160045260245ffd5b51906001600160a01b03821682036100dd5756fe60806040526004361015610011575f80fd5b5f5f3560e01c8063673da154146106fb578063715018a6146106a15780638da5cb5b1461067a578063b921af6214610635578063bb42b08714610519578063c881addd14610394578063f20c7abf146101ad578063f2fde38b1461011f5763f5de118e1461007d575f80fd5b3461011c57602036600319011261011c576040610120916004358152600160205220805490600181015490600281015460018060a01b0360038301541660018060a01b0360048401541660018060a01b0360058501541691600685015493600860ff60078801541696015496604051988952602089015260408801526060870152608086015260a085015260c0840152151560e0830152610100820152f35b80fd5b503461011c57602036600319011261011c576004356001600160a01b038116908190036101a95761014e6109c6565b80156101955781546001600160a01b03198116821783556001600160a01b03167f8be0079c531659141344cd1fd0a4f28419497f9722a3daafe3b4186f6b6457e08380a380f35b631e4fbdf760e01b82526004829052602482fd5b5080fd5b503461011c5761010036600319011261011c576004356084356001600160a01b038116908190036103905760a4356001600160a01b0381169081900361038c5760c4356001600160a01b03811691908290036103885761020b6109c6565b8385526001602052604085205461034e5760405192610120840184811067ffffffffffffffff82111761033a57604090815260243585526044356020808701918252606435878401908152606088019485526080880195865260a0880196875260e43560c0890190815260e089018b81526101008a018c81528b8d52600194859052958c2099518a5593519289019290925551600288015592516003870180546001600160a01b039283166001600160a01b03199182161790915594516004880180549183169187169190911790559451600587018054919096169416939093179093555160068401555160078301805460ff191691151560ff16919091179055516008909101557f365fd13c96b2ffa9fba1c12d7e994225c9a1aa29ba56b41bf3de378079834ef18280a280f35b634e487b7160e01b87526041600452602487fd5b60405162461bcd60e51b8152602060048201526012602482015271185b1c9958591e481c9959da5cdd195c995960721b6044820152606490fd5b8480fd5b8380fd5b8280fd5b503461011c576103a3366108c1565b7f00000000000000000000000000000000000000000000000000000000000000006001600160a01b031633036104df57818352600160205260408320805480156104a957421061047257600781019182549260ff841661043b576008602093839260017f6b780cc382523ffd4b53440f5750410b7b42735f932e6a039dc25505b3f944809760ff19161790550155604051908152a280f35b60405162461bcd60e51b815260206004820152600f60248201526e185b1c9958591e481cd95d1d1b1959608a1b6044820152606490fd5b60405162461bcd60e51b815260206004820152600f60248201526e1b9bdd081e595d08195e1c1a5c9959608a1b6044820152606490fd5b60405162461bcd60e51b815260206004820152600e60248201526d756e6b6e6f776e2073657269657360901b6044820152606490fd5b60405162461bcd60e51b815260206004820152601260248201527137b7363c9021a922903337b93bb0b93232b960711b6044820152606490fd5b503461011c57602036600319011261011c5760043580825260016020526040822061054a60ff6007830154166108d7565b6005810180546001600160a01b031691903383900361060757600682019182549283156105cd57869055600301547f8606a781efe7af9d45a62d3d0079e36c36c437261504883e026cc407d73cfd17936105af918491906001600160a01b0316610945565b54604080516001600160a01b0390921682526020820192909252a280f35b60405162461bcd60e51b81526020600482015260126024820152716e6f7468696e6720746f207265636c61696d60701b6044820152606490fd5b60405162461bcd60e51b815260206004820152600660248201526506e6f74206c760d41b6044820152606490fd5b503461011c578060031936011261011c576040517f00000000000000000000000000000000000000000000000000000000000000006001600160a01b03168152602090f35b503461011c578060031936011261011c57546040516001600160a01b039091168152602090f35b503461011c578060031936011261011c576106ba6109c6565b80546001600160a01b03198116825581906001600160a01b03167f8be0079c531659141344cd1fd0a4f28419497f9722a3daafe3b4186f6b6457e08280a380f35b503461088a5761070a366108c1565b815f52600160205260405f2061072660ff6007830154166108d7565b811561088e5760048101546001600160a01b0316803b1561088a57604051632770a7eb60e21b815233600482015260248101849052905f908290604490829084905af1801561087f5761084e575b5083916008820154600183015490818111610807575b50505081610796578380f35b816107e57f7801495add407ab8fd4210ca3379c1da79b7effb3fc98339ebf4b843141e867a938360066107fd95016107cf838254610911565b90556003015433906001600160a01b0316610945565b60408051338152602081019290925290918291820190565b0390a25f80808380f35b82945061082a670de0b6b3a764000093610825610836948694610911565b610932565b04936002840154610932565b04808311610846575b808061078a565b91505f61083f565b90935067ffffffffffffffff811161086b576040525f925f610774565b634e487b7160e01b5f52604160045260245ffd5b6040513d5f823e3d90fd5b5f80fd5b60405162461bcd60e51b815260206004820152600b60248201526a1e995c9bc8185b5bdd5b9d60aa1b6044820152606490fd5b604090600319011261088a576004359060243590565b156108de57565b60405162461bcd60e51b815260206004820152600b60248201526a1b9bdd081cd95d1d1b195960aa1b6044820152606490fd5b9190820391821161091e57565b634e487b7160e01b5f52601160045260245ffd5b8181029291811591840414171561091e57565b916040519163a9059cbb60e01b5f5260018060a01b031660045260245260205f60448180865af19060015f51148216156109a5575b604052156109855750565b635274afe760e01b5f9081526001600160a01b0391909116600452602490fd5b9060018115166109bd57823b15153d1516169061097a565b503d5f823e3d90fd5b5f546001600160a01b031633036109d957565b63118cdaa760e01b5f523360045260245ffdfea26469706673582212200083e2e6a7bb2dfca72b836cc9f8ce09af33f9a76f1e3ec47081e308025ae75b64736f6c634300081e0033","linkReferences":{}},"methodIdentifiers":{"creForwarder()":"b921af62","owner()":"8da5cb5b","reclaimCollateral(bytes32)":"bb42b087","redeem(bytes32,uint256)":"673da154","registerSeries(bytes32,uint256,uint256,uint256,address,address,address,uint256)":"f20c7abf","renounceOwnership()":"715018a6","series(bytes32)":"f5de118e","settleSeries(bytes32,uint256)":"c881addd","transferOwnership(address)":"f2fde38b"},"id":47}